{
  "contractName": "COUNTER",
  "abi": [
    {
      "anonymous": false,
      "inputs": [
        {
          "indexed": false,
          "internalType": "uint256",
          "name": "",
          "type": "uint256"
        }
      ],
      "name": "Increment",
      "type": "event"
    },
    {
      "inputs": [],
      "name": "count",
      "outputs": [
        {
          "internalType": "uint256",
          "name": "",
          "type": "uint256"
        }
      ],
      "stateMutability": "view",
      "type": "function"
    },
    {
      "inputs": [],
      "name": "increment",
      "outputs": [],
      "stateMutability": "nonpayable",
      "type": "function"
    },
    {
      "inputs": [],
      "name": "reset",
      "outputs": [],
      "stateMutability": "nonpayable",
      "type": "function"
    }
  ],
  "bytecode": "0x60806040526000805534801561001457600080fd5b5060fd806100236000396000f3fe6080604052348015600f57600080fd5b5060043610603c5760003560e01c806306661abd146041578063d09de08a14605d578063d826f88f146065575b600080fd5b6047606d565b6040518082815260200191505060405180910390f35b60636073565b005b606b60be565b005b60005481565b600160008082825401925050819055507f51af157c2eee40f68107a47a49c32fbbeb0a3c9e5cd37aa56e88e6be92368a816000546040518082815260200191505060405180910390a1565b6000808190555056fea2646970667358221220cb7d535156b247216def50720aad6722cb099a7e0bdea3351ceb3b16d237bf4464736f6c63430007010033",
  "immutableReferences": {},
  "source": "pragma solidity ^0.7.0;\r\n\r\ncontract COUNTER {\r\n    uint256 public count = 0;\r\n    event Increment(uint256);\r\n\r\n    function increment() public {\r\n        count += 1;\r\n        emit Increment(count);\r\n    }\r\n\r\n    function reset() public {\r\n        count = 0;\r\n    }\r\n}\r\n",
  "sourcePath": "C:/Users/Pradeep/Dropbox/Blockchain Development Course George Brown/dApp1/General/General/Group Projects/truffle-demo/contracts/counter.sol",
  "compiler": {
    "name": "solc",
    "version": "0.7.1+commit.f4a555be.Emscripten.clang"
  },
  "schemaVersion": "3.3.4",
  "updatedAt": "2021-04-04T20:17:49.592Z",
  "devdoc": {
    "kind": "dev",
    "methods": {},
    "version": 1
  },
  "userdoc": {
    "kind": "user",
    "methods": {},
    "version": 1
  }
}